:020000040800F2
:10400000FFFF012035A9000833740008357400084B
:104010004D7500084F75000851750008000000003C
:10402000000000000000000000000000A56400087F
:104030005375000800000000116500082574000891
:1040400079A9000879A9000879A9000879A90008C8
:1040500079A9000879A9000879A9000879A90008B8
:1040600079A9000879A90008E1ED0008E9BC000879
:1040700079A9000851BD00081DBD000845BD000814
:1040800055750008DDBC000879A9000879A9000869
:1040900079A9000879A9000879A9000879A9000878
:1040A00079A9000879A9000879A9000879A9000868
:1040B00079A9000879A9000879A90008C1BC0008FD
:1040C000CDBC0008F5BC000801BD000879A90008B6
:1040D00079A9000879A90008E5ED000879A9000888
:1040E0000174000879A9000879A9000879A90008D5
:1040F00079A9000879A9000879A9000811BD00086C
:1041000079A9000879A9000879A9000879A9000807
:10411000E9ED000879A9000879A9000879A9000843
:1041200079A9000879A9000879A9000879A90008E7
:1041300079A9000879A9000879A9000879A90008D7
:1041400079A9000879A9000879A9000899C9000887
:1041500079A9000879A90008F1ED0008EDED000843
:1041600029BD000835BD000879A9000879A9000813
:1041700079A9000879A9000879A9000879A9000897
:0841800079A9000879A90008E3
:1041880081F0004102E000BF83F0004330B54FEA00
:1041980041044FEA430594EA050F08BF90EA020F6D
:1041A8001FBF54EA000C55EA020C7FEA645C7FEA00
:1041B800655C00F0E2804FEA5454D4EB5555B8BF23
:1041C8006D420CDD2C4480EA020281EA030382EA94
:1041D800000083EA010180EA020281EA0303362D26
:1041E80088BF30BD11F0004F4FEA01314FF4801CF9
:1041F8004CEA113102D0404261EB410113F0004F0B
:104208004FEA03334CEA133302D0524263EB4303C1
:1042180094EA050F00F0A780A4F10104D5F1200E5F
:104228000DDB02FA0EFC22FA05F2801841F10001BA
:1042380003FA0EF2801843FA05F359410EE0A5F18E
:1042480020050EF1200E012A03FA0EFC28BF4CF0BF
:10425800020C43FA05F3C01851EBE37101F0004575
:1042680007D54FF0000EDCF1000C7EEB00006EEB82
:104278000101B1F5801F1BD3B1F5001F0CD349080C
:104288005FEA30004FEA3C0C04F101044FEA445263
:1042980012F5800F80F09A80BCF1004F08BF5FEAEA
:1042A800500C50F1000041EB045141EA050130BDCA
:1042B8005FEA4C0C404141EB010111F4801FA4F16D
:1042C8000104E9D191F0000F04BF01460020B1FAC2
:1042D80081F308BF2033A3F10B03B3F120020CDAFA
:1042E8000C3208DD02F1140CC2F10C0201FA0CF0D8
:1042F80021FA02F10CE002F11402D8BFC2F1200C3D
:1043080001FA02F120FA0CFCDCBF41EA0C019040F2
:10431800E41AA2BF01EB0451294330BD6FEA04043B
:104328001F3C1CDA0C340EDC04F11404C4F1200226
:1043380020FA04F001FA02F340EA030021FA04F338
:1043480045EA030130BDC4F10C04C4F1200220FA8F
:1043580002F001FA04F340EA0300294630BD21FACD
:1043680004F0294630BD94F0000F83F4801306BF93
:1043780081F480110134013D4EE77FEA645C18BF87
:104388007FEA655C29D094EA050F08BF90EA020F1E
:1043980005D054EA000C04BF1946104630BD91EA16
:1043A800030F1EBF0021002030BD5FEA545C05D119
:1043B8004000494128BF41F0004130BD14F5800458
:1043C8003CBF01F5801130BD01F0004545F0FE41CC
:1043D80041F470014FF0000030BD7FEA645C1ABF01
:1043E800194610467FEA655C1CBF0B46024650EA38
:1043F800013406BF52EA033591EA030F41F4002164
:1044080030BD00BF90F0000F04BF0021704730B5E9
:104418004FF4806404F132044FF000054FF00001BE
:1044280050E700BF90F0000F04BF0021704730B57F
:104438004FF4806404F1320410F0004548BF404254
:104448004FF000013EE700BF42004FEAE2014FEAA9
:1044580031014FEA02701FBF12F07F4393F07F4F84
:1044680081F06051704792F0000F14BF93F07F4FB6
:10447800704730B54FF4607401F0004521F00041F9
:1044880020E700BF50EA010208BF704730B54FF07F
:1044980000050AE050EA010208BF704730B511F084
:1044A800004502D5404261EB41014FF4806404F1BC
:1044B80032045FEA915C3FF4DCAE4FF003025FEA3E
:1044C800DC0C18BF03325FEADC0C18BF033202EBC6
:1044D800DC02C2F1200300FA03FC20FA02F001FA20
:1044E80003FE40EA0E0021FA02F11444C1E600BFBF
:1044F80070B54FF0FF0C4CF4E06C1CEA11541DBF72
:104508001CEA135594EA0C0F95EA0C0F00F0DEF83C
:104518002C4481EA030621EA4C5123EA4C5350EA21
:10452800013518BF52EA033541F4801143F4801372
:1045380038D0A0FB02CE4FF00005E1FB02E506F003
:104548000042E0FB03E54FF00006E1FB03569CF058
:10455800000F18BF4EF0010EA4F1FF04B6F5007F5E
:1045680064F5407404D25FEA4E0E6D4146EB0606D0
:1045780042EAC62141EA55514FEAC52040EA5E5059
:104588004FEACE2EB4F1FD0C88BFBCF5E06F1ED803
:10459800BEF1004F08BF5FEA500E50F1000041EB3A
:1045A800045170BD06F0004646EA010140EA0200E7
:1045B80081EA0301B4EB5C04C2BFD4EB0C0541EA09
:1045C800045170BD41F480114FF0000E013C00F31E
:1045D800AB8014F1360FDEBF002001F0004170BD42
:1045E800C4F10004203C35DA0C341BDC04F114045B
:1045F800C4F1200500FA05F320FA04F001FA05F2E7
:1046080040EA020001F0004221F0004110EBD370B3
:1046180021FA04F642EB06015EEA430E08BF20EADF
:10462800D37070BDC4F10C04C4F1200500FA04F382
:1046380020FA05F001FA04F240EA020001F0004114
:1046480010EBD37041F100015EEA430E08BF20EA87
:10465800D37070BDC4F1200500FA05F24EEA020ECF
:1046680020FA04F301FA05F243EA020321FA04F0FE
:1046780001F0004121FA04F220EA020000EBD370B5
:104688005EEA430E08BF20EAD37070BD94F0000FB5
:104698000FD101F00046400041EB010111F4801FE9
:1046A80008BF013CF7D041EA060195F0000F18BF9A
:1046B800704703F00046520043EB030313F4801FD6
:1046C80008BF013DF7D043EA0603704794EA0C0F90
:1046D8000CEA135518BF95EA0C0F0CD050EA4106A6
:1046E80018BF52EA4306D1D181EA030101F0004123
:1046F8004FF0000070BD50EA410606BF104619464B
:1047080052EA430619D094EA0C0F02D150EA013656
:1047180013D195EA0C0F05D152EA03361CBF104697
:1047280019460AD181EA030101F0004141F0FE4136
:1047380041F470014FF0000070BD41F0FE4141F4BA
:10474800780170BD70B54FF0FF0C4CF4E06C1CEABA
:1047580011541DBF1CEA135594EA0C0F95EA0C0F6F
:1047680000F0A7F8A4EB050481EA030E52EA03352A
:104778004FEA013100F088804FEA03334FF080554B
:1047880045EA131343EA12634FEA022245EA111578
:1047980045EA10654FEA00260EF000419D4208BF29
:1047A800964244F1FD0404F5407402D25B084FEAD6
:1047B8003202B61A65EB03055B084FEA32024FF482
:1047C80080104FF4002CB6EB020E75EB030E22BFDF
:1047D800B61A754640EA0C005B084FEA3202B6EB9F
:1047E800020E75EB030E22BFB61A754640EA5C004E
:1047F8005B084FEA3202B6EB020E75EB030E22BFDE
:10480800B61A754640EA9C005B084FEA3202B6EBDE
:10481800020E75EB030E22BFB61A754640EADC009D
:1048280055EA060E18D04FEA051545EA16754FEAFF
:1048380006164FEAC30343EA52734FEAC2025FEA1D
:104848001C1CC0D111F4801F0BD141EA00014FF0AC
:1048580000004FF0004CB6E711F4801F04BF01437D
:104868000020B4F1FD0C88BFBCF5E06F3FF6AFAE99
:10487800B5EB030C04BFB6EB020C5FEA500C50F129
:10488800000041EB045170BD0EF0004E4EEA1131AC
:1048980014EB5C04C2BFD4EB0C0541EA045170BDB3
:1048A80041F480114FF0000E013C90E645EA060EF7
:1048B8008DE60CEA135594EA0C0F08BF95EA0C0F25
:1048C8003FF43BAF94EA0C0F0AD150EA01347FF46D
:1048D80034AF95EA0C0F7FF425AF104619462CE744
:1048E80095EA0C0F06D152EA03353FF4FDAE1046A7
:1048F800194622E750EA410618BF52EA43067FF4F8
:10490800C5AE50EA41047FF40DAF52EA43057FF487
:10491800EBAE12E74FF0FF3C06E000BF4FF0010C92
:1049280002E000BF4FF0010C4DF804CD4FEA410CF6
:104938007FEA6C5C4FEA430C18BF7FEA6C5C1BD0C3
:1049480001B050EA410C0CBF52EA430C91EA030F44
:1049580002BF90EA020F0020704710F1000F91EAA1
:10496800030F58BF994208BF90422CBFD8176FEA6F
:10497800E37040F0010070474FEA410C7FEA6C5C3D
:1049880002D150EA013C07D14FEA430C7FEA6C5C44
:10499800D6D152EA033CD3D05DF8040B704700BF70
:1049A8008446104662468C461946634600E000BFBE
:1049B80001B5FFF7B7FF002848BF10F1000F01BD90
:1049C8004DF808EDFFF7F4FF0CBF012000205DF85B
:1049D80008FB00BF4DF808EDFFF7EAFF34BF0120E0
:1049E80000205DF808FB00BF4DF808EDFFF7E0FF79
:1049F80094BF012000205DF808FB00BF4DF808EDCA
:104A0800FFF7CEFF94BF012000205DF808FB00BF30
:104A18004DF808EDFFF7C4FF34BF012000205DF812
:104A280008FB00BF4FEA4102B2F1E04324BFB3F5EF
:104A3800001CDCF1FE5C0DD901F0004C4FEAC0020D
:104A48004CEA5070B2F1004F40EB830008BF20F0F1
:104A58000100704711F0804F21D113F13872BCBFAB
:104A680001F00040704741F480114FEA5252C2F100
:104A78001802C2F1200C10FA0CF320FA02F018BF49
:104A880040F001004FEAC1234FEAD32303FA0CFC9C
:104A980040EA0C0023FA02F34FEA4303CCE77FEA2B
:104AA800625307D150EA01331EBF4FF0FE4040F475
:104AB8004000704701F0004040F0FE4040F4000024
:104AC800704700BF7BB972B90029BEBF00204FF004
:104AD800004106E008BF00281CBF6FF000414FF0FE
:104AE800FF3000F03BB882B0EC462DE9005000F0F2
:104AF80005F8DDF804E002B00CBC70472DE9F04180
:104B0800069C154606460F46984600F029F805FB10
:104B180001F300FB0838A5FB0023B21A434467EBF6
:104B28000303C4E90023BDE8F08100BF2DE9F0418B
:104B3800069C904606460F461D4600F05FF900FBAE
:104B480005F5A0FB082308FB0155B21A2B4467EBB7
:104B58000303C4E90023BDE8F08100BF704700BF2C
:104B680000292DE9F043C0F2A6800026002BC0F2F0
:104B78009C80884694469E46154604460F46002B60
:104B88003DD18A4259D9B2FA82F33BB1C3F120022E
:104B98009F4020FA02F29D4017439C40290C220CAA
:104BA800B7FBF1FEA8B201FB1E7742EA074700FBFC
:104BB8000EF3BB420AD97F190EF1FF3280F005814E
:104BC800BB4240F20281AEF1020E2F44FF1AA4B29A
:104BD800B7FBF1F301FB137744EA074700FB03F047
:104BE800B84208D97F1903F1FF3280F0F080B8424B
:104BF80040F2ED80023B43EA0E43002203E08B4281
:104C08000FD900221346341C18BF012460424FF00C
:104C1800000565EB45015840514000196941BDE860
:104C2800F083B3FA83F2002A40F086808B4202D3E5
:104C3800844500F2DB800123E5E712B90123B3FBC9
:104C4800F2F5B5FA85F000283BD1781B4FEA154EEE
:104C58001FFA85FC0122B0FBFEF8210C0EFB180799
:104C680041EA07470CFB08F3BB4207D97F1908F153
:104C7800FF3102D2BB4200F2BD808846FF1AA4B2BF
:104C8800B7FBFEF30EFB137744EA07470CFB03FC64
:104C9800BC4507D97F1903F1FF3102D2BC4500F2A8
:104CA800A7800B4643EA0843ADE752426FEA06067F
:104CB80063EB43035DE7404261EB41014FF0FF3690
:104CC80054E7C0F1200224FA02F107FA00F3854004
:104CD8004FEA154ED7401943B7FBFEF20B0C0EFBFB
:104CE80012771FFA85FC43EA07430CFB02F79F4241
:104CF80004FA00F407D95B1902F1FF3074D29F421D
:104D080072D9023A2B44DF1B89B2B7FBFEF80EFBBF
:104D1800187341EA03430CFB08F79F4208D95B1953
:104D280008F1FF315CD29F425AD9A8F102082B44FE
:104D3800D81B48EA02428EE7C2F120032CFA03F19D
:104D48000EFA02FE20FA03F741EA0E0E08FA02F004
:104D580028FA03F14FEA1E453843B1FBF5F8030C76
:104D680005FB18111FFA8EF743EA014107FB08F308
:104D78008B420CFA02FC09D911EB0E0108F1FF393C
:104D880030D28B422ED9A8F102087144C91A80B2D8
:104D9800B1FBF5F305FB131140EA014107FB03F7EB
:104DA8008F4208D911EB0E0103F1FF3016D28F4262
:104DB80014D9023B714443EA0843C91BA3FB0C897D
:104DC800494509D305D000221DE79646FEE613465D
:104DD80011E794404445F6D2013BF4E70346EAE77D
:104DE8008846A5E7C846D1E702468CE713460AE796
:104DF800023B57E7A8F102082F443FE72DE9F041AD
:104E0800002B44D18A42154604464FD9B2FA82F79C
:104E18000E464FB1C7F12003B94020FA03F602FA53
:104E280007F50E4300FA07F44FEA154E230CB6FBBC
:104E3800FEF0AFB20EFB106143EA014307FB00F13D
:104E4800994209D95B1900F1FF3280F0EC80994250
:104E580040F2E98002382B445A1AA4B2B2FBFEF39E
:104E68000EFB132244EA024207FB03F7974208D9D4
:104E7800521903F1FF3180F0D880974240F2D58073
:104E8800023B43EA004000263146BDE8F0818B42F0
:104E980047D8B3FA83F6002E48D18B4202D3824218
:104EA80000F2CD8001203146BDE8F08112B901251C
:104EB800B5FBF2F5B5FA85F8B8F1000F77D14A1BC2
:104EC8004FEA154EAFB20126B2FBFEF0230C0EFBE3
:104ED800102143EA014107FB00F38B4207D9491926
:104EE80000F1FF3202D28B4200F2BA801046C91A92
:104EF800A4B2B1FBFEF30EFB131144EA014407FB15
:104F080003F7A74208D9641903F1FF3280F08F80B4
:104F1800A74240F28C80023B43EA00403146BDE89C
:104F2800F081002630463146BDE8F081C6F1200404
:104F380022FA04F5B3402B4320FA04FC01FA06F7E1
:104F480021FA04F54FEA134E4CEA0707B5FBFEF8C1
:104F5800390C0EFB18551FFA83FC41EA05450CFB7A
:104F680008F1A94202FA06F204D9ED1808F1FF3453
:104F780067D3A0466D1ABFB2B5FBFEF40EFB1455FD
:104F880047EA05410CFB04FC8C4504D9C91804F117
:104F9800FF355CD32C4644EA0844CCEB0101A4FB62
:104FA8000223994248D344D0204600266CE7C8F132
:104FB800200401FA08F305FA08F520FA04F7E1409D
:104FC8004FEA154E1F43B1FBFEF63A0C0EFB1611C5
:104FD8001FFA85FC42EA01430CFB06F29A4200FAEA
:104FE80008F407D95B1906F1FF3137D29A4235D94F
:104FF800023E2B449B1ABFB2B3FBFEF00EFB1033EC
:1050080047EA03430CFB00F1994207D95B1900F109
:10501800FF3221D299421FD902382B445A1A40EA4A
:105028000646674650E7104616E70B4629E713463B
:1050380072E7B0409042B7D2601E002624E730469F
:1050480022E7A94295D9A8F102081D4492E78C45A8
:10505800A0D9023C19449EE71046DFE70E46C9E78F
:105068000238294443E700BF10F8012B11F8013B2F
:10507800012A28BF9A42F7D0D01A704700F10803D6
:105088004FF0FF3282604360C36003610023036016
:10509800704700230361704743685A684A60426852
:1050A8008A605A68916059604160086103680133F9
:1050B800036070470A68531C10B501D1036907E003
:1050C80000F108035C682468944201D85B68F9E73A
:1050D8005A684A6091608B605960086103680133BF
:1050E800036010BD436882689A60836842685A60AA
:1050F80003695A68824204BF82685A6000220261CA
:105108001A68013A1A601868704708B502F0B4FFC7
:10511800FCE7000010B50E4B1A6850600D4A126883
:105128009042044607D20C4A10681968BDE810403E
:105138000431FFF7BFBF094A106819680431FFF747
:10514800B9FF074B1A68944238BF1C6010BD00BFF6
:10515800300A0020480A00204C0A00205409002088
:10516800000000200B4B1B6800230B4A1268934277
:105178000AD20A4A52F82320126B013A12F8011F88
:10518800BE29FBD00133F0E7054B1868054B1B68B7
:1051980018447047300A0020600A0020F0090020F7
:1051A8002C0A0020580A00202DE9F74F0C9EDDF844
:1051B80038B08A4615469946804628B967486849EE
:1051C80040F2272205F006FA042E05D965486449FD
:1051D8004FF40A7205F0FEF94C2001F0C5F8624A56
:1051E80013684C3313600446D0B1AF00BBF1000F15
:1051F80003D1384601F0B8F883465C49C4F830B0AA
:105208000B683B440B60BBF1000F04D1204601F052
:1052180005F95C4604E05846BE213A460EF08FFC7C
:10522800534A13682B44136044B952484C494FF40D
:105238000C7205F0CFF94FF0FF308CE005F1804B90
:10524800AD00013D25644C4D236B29684B4A0BF199
:10525800FF3B03EB8B0342F8214004F13400514635
:105268000A2223F0070B0EF082FC042E33464FF07F
:10527800000728BF042304F1040AE362636450466C
:1052880084F83D700193FFF704FF04F11800FFF75D
:1052980000FF019B2461C3F10503A3616462A76455
:1052A800584641464A4601F0E9F80D9B20600BB18B
:1052B8000D9B1C6001F010F92B68DFF8E8800133C2
:1052C8002B602F4D2F68EFB92B4B2C601B68012BDF
:1052D80020D108EB07001437FFF7D0FE642FF8D170
:1052E800DFF8C490274F4846FFF7C8FE3846FFF757
:1052F800C5FE2548FFF7C2FE244BC3F80090244B97
:105308001F6007E0234B1B6823B92B68DB6AB34295
:1053180098BF2C60204AE36A11688B421F4988BFF6
:1053280013600A6801320A601D4A116814208B4212
:1053380000FB0380514688BF1360FFF7ADFE01F004
:10534800D9F8144B1B682BB12B68DB6AB34201D226
:1053580001F0B2F8012003B0BDE8F08FCC3B0108A2
:10536800D73B0108EC3B01082C0A0020580A002012
:10537800880900202F3C0108600A0020F00900205D
:10538800300A002074090020340A00205409002043
:105398004C0A002058090020640A0020540A002002
:1053A800500A00208C0900206009002030B585B023
:1053B80000240094019402940394124812499622FE
:1053C8002346FFF7F1FE012805460FD100F03AFE0B
:1053D800012805460AD101F077F80C4B1D600C4BEB
:1053E8001C6005B0BDE8304001F0D2B845B90948A5
:1053F800094940F24A5205B0BDE8304005F0EAB824
:1054080005B030BD13510008383C01085809002088
:10541800480A00203D3C0108D73B0108024A1368AE
:1054280001331360704700BF5C09002010B501F01C
:1054380053F8034B1C6801F05DF8204610BD00BF0F
:10544800480A0020F8B52E4B1B68002B52D12D4B73
:105458002D4D1A6801321A601A681E46F2B92B4C93
:1054680023681B682BB12A482A4940F2B66205F026
:10547800B1F8294B2268196821601A60274A136815
:105488000133136023681B6813B94FF0FF3304E03E
:105498001E4B1B68DB68DB685B682B6032682B6817
:1054A8009A422BD3194B1A68126812B94FF0FF337E
:1054B80006E01B68DB68DC68326863689A4201D2E0
:1054C8002B60F8BD271D3846FFF70CFEA36A1BB1F9
:1054D80004F11800FFF706FE114AE36A11688B42CF
:1054E80088BF13600F4A142000FB03203946FFF7DA
:1054F800D3FDD7E70C4A136801331360F8BD00BF2A
:105508005C090020480A00200000002054090020FF
:10551800453C0108D73B01084C0A002050090020EF
:10552800500A00208C0900204C09002070B52B4C33
:1055380023682BB92A482B4940F2855205F04AF8CE
:1055480000F0CAFF2368013B236024680CB10024E3
:1055580040E0254B1B68002BF9D0244B1A68F2B1A8
:10556800DB68DD682E1D05F11800FFF7BBFD30462E
:10557800FFF7B8FD1E4AEB6A11688B4288BF1360BB
:105588001C4A142000FB03203146FFF785FD1A4B07
:10559800EA6A1B68DB6A9A4228BF0124DDE7174BD9
:1055A8001A681D4642B12B68144C3BB1FFF74AFFFD
:1055B8002368013B2360F6E7012C06D1104B00223B
:1055C8001A60012400F078FF04E00D4B1B68012BE2
:1055D800BDD1F3E700F08EFF204670BD5C090020C6
:1055E800703C0108D73B0108600A0020340A0020FB
:1055F800500A00208C090020300A00204C090020A5
:105608005C0A002038B50C46054628B91A481B49DB
:105618004FF4447204F0DEFF2CB91948174940F2E0
:10562800113204F0D7FFFFF7F9FE164A2B6811680C
:1056380099421C4402D29C4208D201E09C4207D302
:1056480013689C4294BF0023012302E0002300E07A
:1056580001232C603BB10C4B18680430FFF742FD66
:105668002046FFF757FDFFF761FF18B9BDE838403E
:1056780000F022BF38BD00BF853C0108D73B0108B8
:10568800983C0108480A0020300A002010B504465A
:1056980018B9BDE8104000F00FBFFFF7BFFE084B78
:1056A8001B681C44074B18680430FFF71BFD204695
:1056B800FFF730FDFFF73AFF0028EAD010BD00BF22
:1056C800480A0020300A002038B50D46044608B9BB
:1056D800044B1C6800F000FFA564BDE8384000F0EA
:1056E80009BF00BF300A002038B51E4B1B6813B134
:1056F80001221D4B34E01D4C2268236812681B6B85
:105708009A4210D820682168343102F06DFB0AE013
:105718002B682BB91648174940F2667204F05AFFF5
:105728002B68013B2B60144D144A296814235943F4
:1057380051580029ECD029684B43D01808334568E4
:105748006D68456013449D4204BF6B684360142331
:1057580003FB01225368DB68236023685A6B084BFC
:105768001A6038BD5C0900205C0A0020300A00205D
:10577800B03C0108D73B0108500A00208C090020E2
:10578800040000E070B50E46054628B90B480C49E0
:1057980040F2717204F01EFF0A4C21682846183145
:1057A800FFF788FC20680430FFF79CFC064B18685C
:1057B8003044BDE87040FFF7ADBC00BFC33C0108F2
:1057C800D73B0108300A0020480A002070B50E4671
:1057D800054628B90B480C4940F2A77204F0FAFEB6
:1057E8000A4C216828461831FFF756FC2068043017
:1057F800FFF778FC064B18683044BDE87040FFF7A7
:1058080089BC00BFC33C0108D73B0108300A00200F
:10581800480A002038B5C368DC682CB91448154913
:1058280040F2DD7204F0D6FE04F118052846FFF7B1
:1058380059FC114B1B6873B9251D2846FFF752FC0C
:105848000E4AE36A11688B4288BF13600C4A142021
:1058580000FB032000E00B482946FFF71DFC0A4B1C
:10586800E06A1B68DB6A984234BF0020012038BD1B
:10587800CF3C0108D73B01085C090020500A0020F2
:105888008C090020340A0020300A002010B5044694
:1058980028B90648064940F2FF7204F09BFE054B02
:1058A8001B682360044B1B68636010BDDE3C010865
:1058B800D73B010850090020480A002038B50D469A
:1058C800044628B91648174940F6090204F082FE32
:1058D8002DB91548134940F60A0204F07BFE00F082
:1058E800FBFD124B61681A6823689A42104B02D07C
:1058F8001A688A420ED21A682B68521A9A4209D23A
:105908000B4A1268521A9B1A20462B60FFF7BEFFFB
:10591800002400E0012400F0EDFD204638BD00BF62
:10592800DE3C0108D73B0108E83C0108500900208B
:10593800480A0020014B01221A6070475C0A0020C7
:10594800014B1868704700BF300A0020044B1868E4
:1059580028B1044B1B68002B0CBF012002207047A4
:10596800580900205C090020F8B5044648B3154DD5
:10597800C36A2A68D26A934223D22A68D26AC2F1D9
:10598800050282611048142202FB030362699A42ED
:10599800064613D1271D3846FFF7A4FB2B680B4A90
:1059A800DB6A1168E3628B4288BF1360142000FB36
:1059B80003603946BDE8F840FFF76EBB2B68DB6A29
:1059C800E362F8BD300A00208C090020500A00204C
:1059D80038B50446D0B1C26A436C9A4216D0051D48
:1059E8002846FFF77FFB636CE362C3F10502A261FF
:1059F800074A11688B4288BF1360064A142000FBCF
:105A080003202946BDE83840FFF746BB38BD00BF34
:105A1800500A00208C09002038B51346026C044651
:105A280032B9056805BB4068FFF7D2FF65601BE027
:105A380063B980680EF078F8A268236C1344626832
:105A4800A360934210D32368A3600DE0C0680EF0F2
:105A58006BF8236CE26821685B421A448A42E26070
:105A68003EBF62689B18E360A36B0133A36338BD34
:105A780030B5056803466DB1C468026C1444C4604F
:105A88004068844228BFDD600846BDE83040D968D8
:105A98000EF04AB830BD10B5044600F01DFDA36CE9
:105AA800002B0CDD636A53B104F12400FFF7B2FE4A
:105AB80008B1FFF73FFFA36C013BA364EFE74FF08A
:105AC800FF33A36400F016FD00F006FD636C002BA5
:105AD8000CDD236953B104F11000FFF79BFE08B1F8
:105AE800FFF728FF636C013B6364EFE74FF0FF3378
:105AF8006364BDE8104000F0FDBC000038B50D46F9
:105B0800044620B917481849F12204F063FD00F053
:105B1800E3FC216CE36B2268A2604B43D0185B1A4C
:105B280013446060E36000204FF0FF33A0636364B8
:105B3800A36455B9236983B104F11000FFF76AFE25
:105B480001280AD100F0B8FC07E004F11000FFF7C3
:105B580095FA04F12400FFF791FA00F0CBFC01203C
:105B680038BD00BFF63C0108FE3C010870B50E4682
:105B78000546A8B14C2000F0F7FB044680B106FBAF
:105B880005F0013000F0F0FB206030B1E5632664D9
:105B980020460121FFF7B2FF09E0204600F03EFC55
:105BA800044805494FF4A77204F014FD0024204668
:105BB80070BD00BF3D3C0108FE3C01082DE9FF41D6
:105BC8000E4601929846044628B93948394940F2A8
:105BD800312204F0FFFC16B9236C002B5ED100279C
:105BE80000F07AFCA26BE36B9A4212D2204631464F
:105BF8004246FFF711FF636A3BB104F12400FFF747
:105C080009FE012801D100F057FC00F073FC0120C7
:105C18004BE0019D15B900F06DFC3DE017B902A8F5
:105C2800FFF734FE00F066FCFFF7F8FB00F054FCC9
:105C3800636C013304BF00236364A36C013304BFA6
:105C48000023A36400F056FC02A801A9FFF736FE62
:105C5800E8B900F041FCA76BE56B00F04BFCAF42E4
:105C68000FD104F110000199FFF78CFD2046FFF7D2
:105C780012FFFFF75BFC08B10127B1E700F01CFC3D
:105C8800FAE72046FFF707FFFFF750FCF4E7204646
:105C9800FFF701FFFFF74AFC002006E00648054928
:105CA80040F2322204F096FC99E704B0BDE8F08196
:105CB800F63C0108FE3C0108133D010838B54C20AC
:105CC80000F052FB0446D0B101230025C3634FF016
:105CD800FF33856345604364056083648560C56000
:105CE80005641030FFF7CAF904F12400FFF7C6F97C
:105CF800204629462A462B46FFF760FF05E0044860
:105D080004494FF4C77204F065FC204638BD00BF53
:105D18006E3D0108FE3C01082DE9F0410D4616468E
:105D28009846044628B91B481B4940F29F3204F0A4
:105D380051FC0DB9236C03BB00F0C6FBA26BE36BEF
:105D48009A42074617D2204629464246FFF764FE84
:105D5800A36C01330AD1636A5BB104F12400FFF735
:105D680059FD30B12EB1012434600DE0A36C01332C
:105D7800A364012408E0002406E0084806494FF41B
:105D8800687204F027FCD7E7384600F0AFFB2046DE
:105D9800BDE8F081F63C0108FE3C0108133D01080E
:105DA8002DE9FF410E4601929846044628B9464817
:105DB80046494FF4806204F00DFC16B9236C002BA1
:105DC80078D1002700F088FBA36B3BB3204631460F
:105DD800E568FFF74DFEB8F1000F12D1A36B013B48
:105DE800A363236813B9FFF7ABFD606023698BB128
:105DF80004F11000FFF70EFD01280BD100F05CFB49
:105E080008E0636AE5602BB104F12400FFF702FDA6
:105E18000028F3D100F06EFB012052E0019D15B976
:105E280000F068FB44E017B902A8FFF72FFD00F067
:105E380061FBFFF7F3FA00F04FFB636C013304BF1B
:105E480000236364A36C013304BF0023A36400F040
:105E580051FB02A801A9FFF731FD20BB00F03CFB74
:105E6800A56B00F047FBC5B9236833B900F034FBD4
:105E78006068FFF779FD00F03DFB04F1240001990B
:105E8800FFF780FC2046FFF706FEFFF74FFB08B13F
:105E9800012797E700F010FBFAE72046FFF7FBFD24
:105EA800FFF744FBF4E72046FFF7F5FDFFF73EFB5D
:105EB800002006E00648054940F2014204F08AFB4A
:105EC8007FE704B0BDE8F081F63C0108FE3C01081C
:105ED800793D0108F8B50E461746044628B91B480F
:105EE8001B4940F2964204F075FB0EB9236C03BBC4
:105EF80000F0EAFAA36B0546CBB120463146FFF71E
:105F0800B7FDA36B013BA363636C01330AD123691B
:105F18005BB104F11000FFF77DFC30B12FB1012413
:105F28003C600DE0636C01336364012408E01C46A7
:105F380006E00848064940F2974204F04BFBD7E7D1
:105F4800284600F0D3FA2046F8BD00BFF63C010809
:105F5800FE3C0108793D010810B5044628B90648F9
:105F6800064940F2CE4204F035FB00F0B5FAA46BC6
:105F780000F0C0FA204610BDF73C0108FE3C0108BD
:105F880038B504460D4600F0A7FA636C013304BF28
:105F980000236364A36C013304BF0023A36400F0EF
:105FA800A9FAA36B23B904F124002946FFF70EFCD4
:105FB8002046BDE83840FFF76EBD0000F8B50D4C2F
:105FC80000F08AFA25688DB90B4F0C4E3846FFF75A
:105FD80055F83046FFF752F8094B1F60094B14205B
:105FE8000C212A461E60FFF7C1FD2060BDE8F8407D
:105FF80000F080BA940A00206C0A0020800A002071
:10600800680A0020980A002010B5044691424160B1
:10601800206105D8D21A83699A420CD2074B04E052
:106028009A4201D2994206D2054B1868211DFFF702
:1060380041F8002010BD012010BD00BF980A0020C3
:10604800680A00201FB5FFF7B9FF0D4B1B6833B96D
:106058000C480D49DD2204F0BDFA00200CE00123B4
:10606800009300230193029303930848084996225A
:10607800FFF79AF80028EBD005B05DF804FB00BFE5
:10608800940A00203D3C0108CF3D0108A5610008A5
:10609800E53D01082DE9F041804617461E460D46AC
:1060A80031B90D480D49EA2204F094FA2C4610E063
:1060B800282000F059F9044658B1FFF77FFF069BE6
:1060C800C4F80080A561E76126626362201DFEF7BF
:1060D800E0FF2046BDE8F081ED3D0108CF3D010815
:1060E8007FB50F4D064628681C46B8B1019102924B
:1060F800039673B9FFF72AFC012818BF22462868BF
:1061080008BF089A01A90CBF23461346FFF756FD9E
:1061180004E01A4601A90023FFF7FEFD04B070BD94
:10612800940A0020F7B5194D2B681A6842B3DA684B
:106138001668DB68DC68271D3846FEF7D3FF636AFC
:1061480020469847E369012BEDD1A3693344B34254
:1061580006D96360246128683946FEF7ABFFE2E799
:1061680000210091204632460B46FFF7B9FF002870
:10617800D9D10748074940F2762204F02BFAD2E732
:10618800054A11682960136003B0F0BD680A002051
:10619800093E0108CF3D0108980A00202DE9F04783
:1061A80086B0DFF870A1DAF800301C68B4FA84F41D
:1061B800640914B9DB681E6800E00026504DFFF73B
:1061C8002DF9FFF733F92B6898428146A84603D288
:1061D800FFF7A8FF012300E00023C5F80090494F0E
:1061E800A3BB44BB4E4526D8FFF7A0F9DAF8003028
:1061F800DB68DD68281DFEF775FFEB69012B16D1FA
:10620800A969284631444A463346FFF7FDFE01286E
:106218000DD100942846214632462346FFF760FFF9
:1062280028B93948394940F2551204F0D3F96B6A54
:106238002846984724E03868C9EB0601FFF7A0FE16
:10624800FFF774F9E0B900F037F919E0FFF76EF9D4
:1062580016E0059C636913B1201DFEF743FFFFF7A5
:10626800E5F8D8F800309842054601D2FFF75AFF02
:10627800039EC8F80050022E2CD0032E3BD046B106
:106288000022386803A91346FFF78AFD0028E0D1E9
:1062980087E7049BA169204619442A46FFF7B4FE04
:1062A8000128EDD1636A20469847E369012BE7D1BD
:1062B800A269049B00961A44204631463346FFF7EC
:1062C8000FFF0028DCD11048104940F22A2204F0C0
:1062D80081F9D5E7049BA3612BB90D480B4940F21E
:1062E800372204F077F9A169204629442A462B462B
:1062F800FFF78AFEC4E7204600F090F8C0E700BF29
:106308009C0A0020940A0020093E0108CF3D01089C
:10631800113E0108680A0020006A704710B5104B4A
:106328001A68824201D21346FAE759685C18844217
:1063380001BF4068091818465960416844189442DA
:1063480009D1084C2468A2421FBF526889184160CD
:106358001A6818BF12680260834218BF186010BD1F
:10636800A40A0020A00A002070B50446FFF756F8DA
:10637800264A106898B9264B264923F007030B6074
:10638800486003F5AB41583145F2D8554860116073
:10639800585183E8220020490B68103B0B602CB150
:1063A800103463071CBF24F007040834611E45F24B
:1063B800E653994222D8174B1D686968A14203D356
:1063C8001268954206D119E029680029F8D02B46B1
:1063D8000D46F2E72A681E681A606B681B1B202BA3
:1063E80006F1100604D9281943606C60FFF796FF80
:1063F800094A696813685B1A136000E00026FFF712
:1064080095F80EB901F0DCFC304670BDA00A0020FA
:10641800B40A0020A40A00200400002010B5044695
:1064280078B1FEF7FBFF074A54F80C1C1368A4F177
:1064380010000B441360FFF771FFBDE81040FFF731
:1064480075B810BD04000020014B1868704700BFE4
:106458000400002003480068006880F3088862B6DA
:1064680000DF00BF08ED00E0DFF80C00016841F430
:10647800700101607047000088ED00E04FF0807304
:1064880000E90A00002340F80C3C6FF0020340F8D2
:10649800202C40F8243C443870470000054B19680C
:1064A8000868B0E8F04F80F309884FF0000080F3E7
:1064B80011887047300A0020024B4FF080521A6052
:1064C800704700BF04ED00E0EFF311804FF05F016B
:1064D80081F311887047002008B5FFF7F5FF024ADD
:1064E80013680133136008BD0800002080F3118889
:1064F80070470000034B18680138186008B9FFF7A7
:10650800F5BF704708000020EFF30980114B1A68A7
:106518001EF0100F08BF20ED108A20E9F04F106020
:106528002DE908404FF05F0080F31188FFF7DCF891
:106538004FF0000080F31188BDE80840196808682A
:10654800B0E8F04F1EF0100F08BFB0EC108A80F3CF
:1065580009887047300A002008B5064B4FF0805272
:106568001A60FFF7B1FFFEF76DFF0020BDE8084095
:10657800FFF7BCBF04ED00E0034B044A1A60072292
:1065880043F8042C704700BF14E000E03F9002007D
:1065980010B50C4B1A6842F47F021A601A6842F070
:1065A8007F421A60FFF7E8FF074B00241C60FFF7E3
:1065B8005BFF064A136843F040431360FFF74AFF46
:1065C800204610BD20ED00E00800002034EF00E078
:1065D80008B54FF48070012100F09CFB4FF48070E7
:1065E8000021BDE8084000F095BB0000436823F097
:1065F80040720B6822F4807213430A7943EA02233B
:1066080043600B69CA681A438B6810B51A438468DB
:10661800084B234013434A7943EA42038360C36A21
:1066280023F470020B7D013BDBB242EA0353C362E1
:1066380010BD00BFFDF7FFC0002303600371437165
:106648008360C360036101230375704710B5074C6D
:10665800074B6268134090E80600114382681143B3
:10666800C2680A431343636010BD00BF00230140A2
:10667800E030FCFF0023036043608360C360704721
:10668800836811B143F0010301E023F00103836043
:106698007047092970B50CD9A1F10A04C66804EB42
:1066A80044040725A54026EA0505A3402B43C360FB
:1066B80009E0056901EB41060724B44025EA040412
:1066C800B34023430361062A0BD8013A446B02EB1B
:1066D80082021F23934024EA030391401943416334
:1066E80070BD0C2A0BD8073A046B02EB82021F23F9
:1066F800934024EA030391401943016370BD0D3AA6
:10670800C46A02EB82021F23934024EA03039140E8
:106718001943C16270BD836843F08043836070474A
:10672800C06C80B270470368194214BF0120002072
:1067380070470000044BDA6809B1104301E022EA0F
:106748000000D860704700BF002004E0036823F011
:10675800010303600023036043608360C360036137
:1067680021234361294B984217D0294B98421BD0CB
:10677800284B984220D0284B984225D0274B984246
:106788002AD0274B98422ED0264B984232D0264BFF
:10679800984236D0254B984203D13D2243F8082C25
:1067A8007047234B984204D14FF4746243F8202C6D
:1067B8007047204B984204D14FF4741243F8382C98
:1067C80070471D4B984204D14FF0746243F8502C27
:1067D80070471A4B984203D1194A43F8642C704702
:1067E800184B984203D1184A43F87C2C7047174B32
:1067F800984203D1164A43F8942C7047154B984297
:1068080003D14FF03D5243F8AC2C70471060024062
:1068180028600240406002405860024070600240B8
:1068280088600240A0600240B860024010640240E4
:106838002864024040640240586402407064024088
:106848003D00002088640240400F0020A064024000
:1068580000003D20B86402400268134B10B5134095
:10686800CC680A6814434A6914438A691443CA699C
:1068780014430A6A14434A6A14438A6A14434A6BE3
:1068880014438A6B22431343036043690C6B23F060
:106898000702CB6A2343134343610B6943604B6888
:1068A80083608B68C36010BD3F801CF0036811B122
:1068B80043F0010301E023F00103036070474160E6
:1068C8007047406880B27047006800F00100704768
:1068D8000B0611D543694AB143F08003802943610F
:1068E80014D0036801F01E0119430EE023F0800361
:1068F8008029436104D17047802907D0002AF0D14C
:10690800036801F01E0123EA0101016070470000DD
:10691800104A114B10B5114CA04294BF1C461446A6
:1069280021F0F02323F0C3122AB1006800F01E0002
:1069380000EAD12202E0406900F0800289004CBFE1
:106948006068206823F08213184002D0101C18BF1A
:10695800012010BD00640240006002400F64024044
:1069680010B5084A084B094CA04294BF1846104677
:1069780011F0005F21F0F02121F0821114BFC160F5
:10698800816010BD00640240006002400F64024054
:10699800837910B50468002B31D01E4B196821EAA1
:1069A80004021A605A68016822EA01025A600279F0
:1069B800016802F1804202F59E3214682143116099
:1069C8009A68016822EA01029A60DA68016822EA94
:1069D8000102DA6042790168102A0BBF9A6802F155
:1069E8008043114303F59E3303BF9960D968026859
:1069F8001A680BBF0A431143DA60196010BD0379A6
:106A080003F1804303F59E331A6822EA04021A60F0
:106A180010BD00BF003C0140014B5861704700BFEA
:106A2800003C0140034B5B69184214BF0120002061
:106A3800704700BF003C0140014B5861704700BFE0
:106A4800003C0140F0B5002201230C6893401C4033
:106A58009C4229D1550003230668AB40DB431E4006
:106A680006600E790768AE403E4306600E79013E27
:106A7800012E11D886681E4086604E798768AE4020
:106A88003E438660466826EA040444608C7946687A
:106A98009440A4B234434460C4682340C360CB79B3
:106AA800C468AB402343C3600132102ACCD1F0BD87
:106AB8004FF6FF7303600023037143718371C37141
:106AC80070470369194214BF0120002070470183F1
:106AD80070474183704710B501F00703C90800EB00
:106AE80081009B00046A0F21994024EA0101016298
:106AF800016A9A401143016210BD00007FB5868883
:106B080026F03F060446360468460D46360C00F06B
:106B180081F8029A2C48B2FBF0F081B20E43A680AD
:106B280023882A4E23F001031B041B0C23802B68A7
:106B3800B3420AD85B000131B2FBF3F39BB2032BDB
:106B480089B298BF0423218423E0EE884BF6FF71B5
:106B58008E421BBF19214B4303EB4303B2FBF3F3F4
:106B680015BF9BB2B2FBF3F343F480439BB2C3F36C
:106B78000B020AB943F001034FF4967101FB00F2CE
:106B88004FF47A7192FBF1F2013292B243F400436E
:106B98002284A38323889BB243F0010323802388A4
:106BA8006989AA8823F4816323F002031B040A433A
:106BB8001B0C13439BB223802A89AB8913439BB2D6
:106BC800238104B070BD00BF40420F00A0860100C1
:106BD800014B1860704700BF00300040014B5860FF
:106BE800704700BF00300040014B9860704700BFFD
:106BF80000300040024B4AF6AA221A60704700BFD4
:106C080000300040024B4CF6CC421A60704700BF7F
:106C18000030004010B51D4A936803F00C03042BA4
:106C280003D0082B03D01A4B18E01A4B16E0516812
:106C3800536811F4800F03F03F03516814BF154ADD
:106C4800134AB2FBF3F3114A5268C2F30142C1F38B
:106C5800881101324B435200B3FBF2F30B4A036035
:106C680093680D49C3F30313CC5C0368E3404360A6
:106C78009468C4F382240C5D23FA04F48460926857
:106C8800C2F342328A5CD340C36010BD0038024070
:106C98000024F40000127A000C000020044B1A6B48
:106CA80009B1104301E022EA00001863704700BFF1
:106CB80000380240044B5A6B09B1104301E022EA44
:106CC80000005863704700BF00380240044B1A6C3C
:106CD80009B1104301E022EA00001864704700BFC0
:106CE80000380240044B5A6C09B1104301E022EA13
:106CF80000005864704700BF00380240044B1A6A0D
:106D080009B1104301E022EA00001862704700BF91
:106D180000380240044B5A6A09B1104301E022EAE4
:106D280000005862704700BF003802404209012A3B
:106D3800074B01D11B6803E0022A0CBF1B6F5B6F76
:106D480000F01F0023FA00F000F00100704700BFB8
:106D580000380240024A536F43F08073536770470C
:106D68000038024008B5474B984205D1012001463A
:106D7800FFF7D0FF01203DE0B0F1804F05D10120A1
:106D88000146FFF7BBFF012076E03F4B984205D153
:106D980002200121FFF7B2FF02206DE03B4B984231
:106DA80005D104200121FFF7A9FF042064E0384B36
:106DB800984205D108200121FFF7A0FF08205BE0D9
:106DC800344B984205D110200121FFF797FF10207E
:106DD80052E0314B984205D120200121FFF78EFF68
:106DE800202049E02D4B984209D102200121FFF7CC
:106DF80091FF02200021BDE80840FFF78BBF284B18
:106E0800984207D14FF480300121FFF783FF4FF4F8
:106E18008030EFE7234B984207D14FF4003001212F
:106E2800FFF778FF4FF40030E4E71F4B984207D193
:106E38004FF480200121FFF76DFF4FF48020D9E740
:106E48001A4B984205D140200121FFF757FF4020F7
:106E580012E0174B984205D180200121FFF74EFF21
:106E6800802009E0134B98420BD14FF48070012128
:106E7800FFF744FF4FF480700021BDE80840FFF79A
:106E88003DBF08BD0000014000040040000800406C
:106E9800000C0040001000400014004000040140B5
:106EA80000400140004401400048014000180040F3
:106EB800001C0040002000401C4A038890429BB2FE
:106EC80012D002F5806290420ED0B0F1804F0BD004
:106ED800A2F58032904207D002F58062904203D03A
:106EE80002F58062904203D14A8823F0700313436D
:106EF8000F4A904208D002F5806290421FBF23F4E7
:106F080040730A899BB2134303804B68C3620B88A2
:106F18000385064B984203D003F58063984201D15C
:106F28008B7A038601238382704700BF00000140EB
:106F3800001000404FF0FF334360002303800381BB
:106F4800438083727047018582827047038819B134
:106F58009BB243F0010303E023F001031B041B0C65
:106F680003807047038C23F001031B041B0C03846C
:106F7800038C70B58488028B0E8822F07302120489
:106F8800120C23F0020516434B888A892D041343FB
:106F98000F4A2D0C2B439042A4B29BB203D002F5AA
:106FA800806290420ED1CA894D8A23F008031343A8
:106FB8008A8823F0040313430A8A24F4407415438F
:106FC8002C43A4B2848006838A684263038470BD1C
:106FD80000000140038C23F010031B041B0C0384E6
:106FE800038C30B58588028B0C8822F4E6421204A3
:106FF800120C42EA042223F0200394B21B048A896B
:107008001B0C43EA02134A8843EA0213124A9042CD
:10701800ADB29BB203D002F58062904215D123F045
:107028008003CA899BB243EA02124FF6BF7313402A
:107038008A8843EA02130A8A25F4406545EA8205EC
:107048004A8A45EA82059BB2ADB2858004838A6884
:107058008263038430BD00BF00000140038C23F429
:1070680080731B041B0C0384038C30B58488828BCB
:107078000D8822F073021204120C23F400731543D6
:107088001B048A891B0C43EA02234A8843EA022329
:10709800124A9042A4B29BB203D002F58062904299
:1070A80015D123F40063CA899BB243EA02224FF642
:1070B800FF3313408A8843EA02230A8A24F440549F
:1070C80044EA02144A8A44EA02149BB2A4B28480B5
:1070D80085838A68C263038430BD00BF0000014015
:1070E800038C23F480531B041B0C0384038C30B5DE
:1070F8008488828B0D8822F4E6421204120C23F451
:10710800005342EA05221B048D891B0C43EA053310
:107118004D8843EA05330B4DA842A4B292B29BB204
:1071280003D005F58065A84205D10D8A24F4804472
:1071380044EA8514A4B2848082838A680264038442
:1071480030BD00BF00000140416370478163704754
:10715800C163704701647047038B23F008031B0465
:107168001B0C194301837047038B23F400631B0432
:107178001B0C43EA012189B201837047838B23F0FA
:1071880008031B041B0C194381837047838B23F46A
:1071980000631B041B0C43EA012189B281837047F9
:1071A800406B7047806B7047C06B7047006C7047CE
:1071B800B0F8443029B16FEA43436FEA53439BB2B6
:1071C80001E0C3F30E03A0F84430704783899BB2F3
:1071D8000AB1194301E023EA0101818170470000E7
:1071E8007FB5038ACA889BB223F4405313430382B2
:1071F80083890E469BB223F4B053098923F00C020D
:10720800B3880B4371890B439BB213438381838AF1
:10721800B2899BB223F440731343838204466846C1
:10722800FFF7F8FC1A4B9C4203D003F580639C429D
:1072380001D1039D00E0029DA38931681BB2002B98
:107248004FF0190202FB05F2B4BF4D008D00B2FBEE
:10725800F5F5A2896426B5FBF6F00001010912B222
:10726800002A06FB1153ADBF1A01D9003231323260
:10727800B5BFB1FBF6F2B2FBF6F302F0070203F07A
:107288000F03B4BF1043184380B2208104B070BD0F
:1072980000100140838919B19BB243F4005303E005
:1072A80023F400531B041B0C83817047C1F30801AE
:1072B800818070478088C0F308007047838A9BB23A
:1072C8000AB1194301E023EA01018182704710B530
:1072D800C1F34214012301F01F01012C03FA01F349
:1072E80001D10C3003E0022C0CBF1030143012B165
:1072F8000268134302E0026822EA0303036010BD38
:10730800C94389B201807047012310B5C1F3421403
:1073180001F01F029C4203FA02F201D1838903E0C3
:10732800022C0CBF038A838A9BB21340028892B254
:107338003BB1090A01238B40134214BF01200020EE
:1073480010BD184610BD090A01238B40DB439BB2D0
:107358000380704740F0BF60024B40F40030D860B3
:10736800704700BF00ED00E0C278037810B512B393
:10737800164AD1684278C943C1F30221C1F1040415
:10738800E4B2A240D4B20F220A4181780A402243D3
:1073980003F1604303F561431201D2B283F800237D
:1073A80003780122590903F01F0302FA03F3084A7C
:1073B80042F8213010BD5A09012103F01F039940FA
:1073C80002F12003024A42F8231010BD00ED00E04C
:1073D80000E100E008B505F051FF00F019FDFDF7E8
:1073E800E5FF05F073FF0020012105F069FF01208A
:1073F800014605F065FFFEE708B54FF48060FFF72A
:1074080011FB012805D14FF48060BDE80840FFF763
:1074180013BB08BD4FF44070FFF79CBF08B5FFF7DA
:107428009BF8BDE8084003F0CDBD70471EF0040F7F
:107438000CBFEFF30880EFF3098000F001B8704744
:107448002DE9F84FD0F800B0D0F804A0D0F8089093
:10745800D0F80C80076946698569C46925492648BA
:1074680003F0F6F9254924485A4603F0F1F924496E
:107478002148524603F0ECF922491F484A4603F0D6
:10748800E7F921491C48424603F0E2F91F491A4826
:107498003A4603F0DDF91E491748324603F0D8F999
:1074A8001C4915482A4603F0D3F91B4912482246BD
:1074B80003F0CEF9194B1A491A680F4803F0C8F9B6
:1074C800184B19491A680C4803F0C2F9174B1849A8
:1074D8001A68094803F0BCF9164B17491A68064898
:1074E80003F0B6F9154B04481A68154903F0B0F9CA
:1074F800FEE700BF363E01089DEB00084C3E010840
:10750800553E01085E3E0108673E0108703E0108CD
:107518007A3E0108833E01088C3E010838ED00E000
:10752800963E010828ED00E0A13E01082CED00E0A0
:10753800AC3E010830ED00E0B73E01083CED00E04C
:10754800C23E0108FEE7FEE7FEE7704706F026BEEA
:1075580037B500240E4D6846FFF7AAFA2B681A596A
:10756800D26800921B5969469868FFF76BFA2B6836
:107578001B5900229868198AFFF7ADFA2B681B5926
:107588000434186AFFF7EEFB102CE3D103B030BDCA
:10759800E46F00202DE9F0413F4F404D3B788AB021
:1075A800044613B12868FFF7D3FF2C6000242B682A
:1075B8001B5901215868FFF771FB2B681B590121E2
:1075C800D869FFF783FB6846FFF772FA02238DF844
:1075D80004308DF805302B681A5952698DF8062049
:1075E8001A59D26800921B5969469868FFF72AFA17
:1075F8002B681B599868198A1A7EFFF76CFA2B6852
:107608001A59D26A03921A590026128EADF8082028
:10761800ADF81060ADF80A608DF812601B5902A928
:10762800186AFFF749FC6023ADF814304FF00108E1
:107638002B68ADF8168007961A59928CADF8202061
:107648004FF48072ADF824201B5905A9DA6B186A2B
:1076580090472B681B5908211A6C186A90472B68A9
:107668001B594146986AFFF765F82B681B59414634
:10767800186A0434FFF79CFD102C98D12B689B598D
:107688000121186A0436FFF761FC102EF6D1012398
:107698003B700AB0BDE8F0819C600020E46F0020D8
:1076A8002DE9F0472DED028B032882B005460C46E4
:1076B80004D93D483D49D12202F08CFF3C4B1A6861
:1076C80052F8252012789A46002A44D107EE104A2B
:1076D800DFED387ABBEEC87A67EE277A17EE900AA4
:1076E800FCF7B2FE8046894608F0B0F92AA3D3E930
:1076F800002340464946B0EE408AFCF7F9FE424670
:107708004B46FCF7F5FE26A3D3E9002306460F46B1
:1077180040464946FCF7ECFE02460B4630463946E1
:10772800FCF734FDFDF77EF907EE900A87EE880A2C
:10773800F7EE007AB4EE670AF1EE10FAC8BFB0EEC1
:10774800670ADFED1D7A20EE270ABCEEC00A8DED30
:10775800010ABDF80440DAF8003053F825301A78E9
:10776800012A01BF45F208214C434FF6FF71B4FBD3
:10777800F1F104BF01F5A44108315A6B0BBF186A37
:10778800186A89B2210A02B0BDEC028BBDE8F04745
:10779800104700BFAFF300809FE3480CA77144BFB8
:1077A800BA490C022B87B63FE83F0108FB3F0108A6
:1077B800E46F00200000704200FF7F4703282DE996
:1077C800FF410446884617461E4605DD18481949F4
:1077D8004FF4847202F0FEFE01A8FFF7ABFB164DD2
:1077E800B8F1000F08D00423144A92FBF7F292B2C2
:1077F800ADF80430029209E02B6853F82420D26ACD
:10780800029253F824301B8EADF804302B6853F8DD
:10781800243001A9186AFFF74FFB2B6853F824306E
:1078280031465A6B186A904704B0BDE8F08100BF32
:10783800E83F0108FB3F0108E46F00200059000100
:1078480070B50024114B1B6853F824301D78BDB95E
:107858000F4B53F824600F4B012133F814203046A6
:1078680040F27573FFF7AAFF3220FDF70FFF30468D
:1078780029462A462B46FFF7A1FF9620FDF706FF6B
:107888000134042CDED1044B187870BDE46F00205D
:1078980010400108583F01089C6000207320704781
:1078A80000B589B0124B1B6868469B68984702462A
:1078B8000028F7D19DF801300E491B0951F8230023
:1078C80020B169461346FEF779F903E00A4A1368BE
:1078D800013313609DF80130084A1B0952F8231040
:1078E8000029DFD052F8233068469847DAE700BF0E
:1078F80050000020A06000202C610020EC600020D7
:1079080010B588B00D4B0E4A196891421C4610D02C
:107918000C4B694618684FF0FF320023FEF740FA17
:107928000128EFD1236868465B6898470028F9D09A
:10793800E8E70A20FDF7AAFEE4E700BF50000020B0
:107948003C000020E86000207FB5154D2C7824BB52
:10795800202122463C20FEF709F9124B202118600D
:1079680022460220FEF702F90F4B10491860022642
:107978009622234600960194029403940C48FDF73E
:1079880013FC2346009601940294039409480A497B
:107998009622FDF709FC01232B7004B070BD00BFCF
:1079A800E4600020E8600020E06000203041010829
:1079B80009790008A978000838410108014B1878AE
:1079C800704700BFE460002038B5094B53F8202009
:1079D80005461C4622B1074807495C2202F0FAFD19
:1079E800012020210022FEF7C1F844F8250038BD07
:1079F800A0600020404101085741010870B50E4BB6
:107A080053F8202006460D461C4622B90B480C495F
:107A18006B2202F0DFFD25B90A4809496C2202F001
:107A2800D9FD54F8260029464FF0FF320023BDE85F
:107A38007040FEF7B5B900BFA06000206A41010898
:107A4800574101082556010808B5034B1868FEF789
:107A580083FAC0F13C0008BDE86000201028DCBFB4
:107A6800014B43F820107047EC60002010B5044625
:107A780020B90B480B49B62202F0ACFD23781E2B27
:107A880004D909480749B72202F0A4FD074B002290
:107A9800186821461346BDE81040FEF78FB800BFAE
:107AA800255601085741010879410108E86000207E
:107AB80008B5064B00211868FEF720F8044B1B6830
:107AC8001B6903B19847002008BD00BFE86000208B
:107AD80050000020034B1B68DB6803B118470120E6
:107AE800704700BF5000002070B5094C2368054658
:107AF80013B11B68002098470DB1256001E0054BC4
:107B08002360236801201B68BDE87040184700BF48
:107B1800500000203C00002038B50C4C4FF0FF33DB
:107B28000021054644F8203005F0CAFB084A2823FE
:107B380003FB0522002352F82310013102D044F838
:107B4800253038BD01330A2BF5D138BDFC61002042
:107B5800306100202DE9F74F8046FEF7DDFB2C4B06
:107B68001B78002B50D0C5B22A4B53F82530581C2F
:107B78004AD00A2606FB0536DFF8A490264A59F8AB
:107B8800264052F823B0254F0021631C0BEBC40A92
:107B980049F8263038680B464FF0FF32FEF700F9F7
:107BA800DAF80430991C08D05A1C0AD1284649F83A
:107BB80026300024FFF7B0FF1EE0002449F82640D5
:107BC8001AE01BF83410284605F07AFBDAF804208E
:107BD800002482B12346022100944046FEF780FA31
:107BE800FDF724FC00940246214623464046FEF752
:107BF80077FA012400E01446002138680A460B464B
:107C0800FDF7DCFF002CAFD003B0BDE8F08F00BF5C
:107C1800F8610020FC6100209841010824620020DE
:107C28003061002037B51E4B1C781D46ACBB05F0F3
:107C38004DFB23461B4A4FF0FF3142F823101A49E7
:107C4800282202FB031100224FF0FF3041F82200E6
:107C580001320A2AF8D10133052BEBD10024134B4A
:107C68000093134823464FF47A710022FEF712FA64
:107C7800104B43F824000134052CF0D103220120D5
:107C88000021FDF773FF0C4A106020B100210A465D
:107C98000B46FDF793FF01232B7003B030BD00BFE7
:107CA800F9610020FC610020306100205D7B000844
:107CB800C0410108106200202462002010B5044B66
:107CC8001C7805F039FB034B01221A70204010BDC7
:107CD800F9610020F8610020F8B505460024174B2B
:107CE80053F824308B4223D1154F00210B464FF017
:107CF800FF323868FEF754F80A2303FB0543114A9C
:107D08000026284642F82360FFF706FF3346386806
:107D180031463246FDF752FF0B4B53F82530A3424C
:107D28000AD10A4B53F82500BDE8F840FFF712BF07
:107D380001340A2CD3D1F8BDF8BD00BF9841010821
:107D48002462002030610020FC61002010620020C5
:107D58004160C2607047000070B505460024144BAE
:107D680053F824308B421FD1124E00210B46306845
:107D78004FF0FF32FEF714F80A2303FB05440E4BBD
:107D88004FF0FF32284643F82420FFF7C5FE0021B4
:107D980030680B460A46FDF711FF084B53F82500DB
:107DA800BDE87040FFF7D6BE01340A2CD7D170BDAC
:107DB80098410108246200203061002010620020F0
:107DC80008B5FEF781FB0649064802F041FD02208E
:107DD800012105F075FA0420012105F071FAFEE78A
:107DE800CC4101088581000808B5FEF76DFB0649FE
:107DF800064802F02DFD0220012105F061FA042059
:107E0800012105F05DFAFEE7DD41010885810008E2
:107E18001FB502230093002301930293039304499F
:107E280004484FF49672FDF7BFF905B05DF804FBFE
:107E3800EF410108557F000873B5254C2578002DC2
:107E480044D10120FDF73AFF224B234E18604FF032
:107E5800FF322B462946FDF7A3FFFFF775FD00F01B
:107E680069F91E491E4802F0F3FC1E491C4802F03D
:107E7800EFFC1D491D4B0D681D4836781D491A68D1
:107E88001D4B002E18BF01461B681548019100952F
:107E98001A4902F0DDFC1A4B1A491B6800931A4B69
:107EA8000F48B3F900300193184B1A68043B1B685C
:107EB80002F0CEFC09F040FD02F016FA08F094FC3E
:107EC800FFF7B0FE07F096FD0123237002B070BDE6
:107ED80029620020E86F00201147010805420108C7
:107EE8008581000828420108F8010020FC010020D3
:107EF800F6410108FF410108F40100204F42010842
:107F0800107AFF1F69420108227AFF1F187AFF1FA3
:107F180038B5064B1C78FFF7D1FE054607F090FDF3
:107F28002840044002F0ECF9204038BD29620020C6
:107F380008B5054B002118680A460B46FDF73EFEBA
:107F4800BDE8084006F068BFE86F002038B505F0C6
:107F5800BDF90121002005F0B3F906F055FDFFF742
:107F68006BFF00F0A5F800F0FFFC01F097FD08F0AA
:107F780017FA00F0A7FCFFF7CBFF044609F088FDCD
:107F88002040C4B200F0AEF8044000F00DFD0440FB
:107F980001F0BAFD044008F021FA044000F0B4FCF6
:107FA80004401E4D06F022FF6CB160B101242C7014
:107FB800FFF7BEFF04201A49FFF78EFE2046194935
:107FC800FFF78AFE1CE000232B70FFF7A1FF88B1A2
:107FD80004201449FFF780FE4FF4FA60FDF756FBC2
:107FE8002B78002BF4D01049104802F031FCFFF731
:107FF8009FFF05E005F06AF90420012105F060F90A
:10800800FEF722FA0A490246084802F021FC02F06B
:108018007FF94FF0FF30FDF739FBFAE728620020BF
:10802800CC000020540000209742010885810008F8
:10803800AB42010810B50B4B1B781BB90220FDF7AA
:1080480025FBF8E7084C00210B4620684FF0FF326B
:10805800FDF7A6FE002120680A460B46BDE8104041
:10806800FDF7ACBD29620020E86F0020014B1870B5
:10807800704700BF2A62002010B5FDF7D7F90A4AF9
:108088001368C31A502B044602D91060FEF7B2FDDC
:10809800064A136842F21071E31A8B4202D914603F
:1080A800FDF760F830BF10BD2C620020940100205D
:1080B80010B50B4C23788BB906F08CFF07F014FF32
:1080C80007F07CFFFFF710FD00F022F908F052F9E5
:1080D80002F026F800F04EF90123237010BD00BF0E
:1080E8003062002038B50B4B1C7807F0C5FE0546FA
:1080F800FFF764FC2840044000F01AF9044008F037
:1081080049F9044000F034F8044000F079F92040BF
:1081180038BD00BF3062002010B5054C2046FFF77F
:10812800A5FC01284FF000030CBF2370184610BDB2
:10813800EC6F002038B50B4B1C781D468CB90A4BE8
:108148000322012021461C705C70FDF70FFD074AD1
:10815800106020B1214622462346FDF72FFD01235A
:108168002B7038BD38620020EC6F0020346200208C
:10817800014B1878704700BF3862002070B51C4B5F
:108188000646187890B31B4D002128684FF0FF323F
:108198000B46FDF705FE012827D1174C23781D2B28
:1081A80004D9FFF751FC012817D109E0E21801337F
:1081B800DBB20A2E96702370F3D01E2BF1D00EE09E
:1081C800207800231A18002A07DD0C491944224494
:1081D80009799170013B5A1DF4D1FFF79DFF0021E9
:1081E80028680A460B46FDF7E9FCF0B270BD00BFEF
:1081F8003862002034620020EC6F0020114301082F
:10820800002343608360C3600361074BC362074B6D
:1082180080ED000AC0ED050A80ED061AC0ED071AC8
:10822800036380ED0D2A704700409C4500409CC5C3
:1082380029B1D0ED007A37EEC00A80ED010A90ED41
:10824800037A90ED016A90ED0D0AD0ED0B7AA6EE57
:10825800007AB4EEE77AF1EE10FA80ED037A06DCE4
:10826800D0ED0C7AB4EEE77AF1EE10FA01D5C0ED54
:10827800037AD0ED027AD0ED066A90ED057A80EDAA
:10828800026A76EE677A26EE077AC7EE807A90ED74
:10829800030AC0ED047A26EE800AD0ED076A80ED65
:1082A800090A67EEA67A37EE000A80ED087AC0ED73
:1082B8000A7A30EE270A704780ED0B0A70470023D0
:1082C80043608360C3600361704780ED010A7047B3
:1082D80080ED000A7047000038B5437813F00303B7
:1082E80005460FD0012B00D038BD04461E2204F8E5
:1082F800022B002120460BF022FC204603490BF0FC
:1083080026FC2846BDE83840FFF7B0BB16430108F5
:1083180010B5054C23782BB90F200449FFF79EFBB5
:108328000123237010BD00BF39620020E1820008DC
:10833800014B1878704700BF3962002030B50B4BED
:108348001C680B4B00221D681346A34209DA0C2156
:1083580059436956002902DB824205D001320133B4
:10836800F3E74FF0FF3030BD184630BD4C620020B7
:1083780044620020F0B5184D2C7885B04CBB1748E6
:108388001749184B184E194F3060091A8A10534371
:108398003B6002F06BFA164A164B3F683668116864
:1083A80018602346BB4207DA0C2058430133305685
:1083B8000028A8BF0131F5E70023012411600E4809
:1083C80000940193029303930C499622FCF7ECFE68
:1083D8002C7005B0F0BD00BF48620020FC5B0108AE
:1083E80054610108ABAAAAAA446200204C6200208A
:1083F8003C620020406200200585000829430108EE
:10840800014B1878704700BF486200202DE9F04101
:1084180018B101281ED0BDE8F081314B314A324CE9
:108428001F68136894F803E0304D04330146B942DD
:108438004BDA13F8046C16F0800F03D0F50705D556
:108448001D6804E0704513D0013000E0274D01316C
:108458000C33ECE7244B20225A7006221A70244A67
:1084680098701268DA70234A10685860184633E02A
:10847800202363700023A3700C231268E0704B4321
:10848800D7182846D35C23710BF069FB2946421C98
:1084980019480BF049FB28460BF061FBD7F804801C
:1084A800064640460BF05BFB2644421C4146B01D85
:1084B8000BF03AFB28460BF052FB054678680BF0A8
:1084C8004EFB28440530207005E02023637000230C
:1084D800A370012323700448BDE8F041FFF7C6BA32
:1084E8004C620020446200200C700020DC4101082E
:1084F8003C62002040620020117000202DE9F74FF7
:108508000220FFF761FA804C02202146FFF776FA35
:108518006678A57816F00306274603D12846FFF7A4
:1085280075FFF0E7012E30D12846FFF707FF002836
:1085380005DAFF23A3700223E570237130E00C23D2
:108548005843724B1B681A5C191802F00302022A7E
:108558008B680CD0032A0FD0012A15BF1B781B8803
:10856800E370A4F8033014BF022303230BE01B6855
:10857800C4F80330052306E01A68C4F803205A68D3
:10858800C4F80720092323702EE0022E2ED1284696
:10859800FFF7D4FE002807DAFF23A370E5702671E1
:1085A8000323237020469CE00C235843574B1B6839
:1085B8001A181B5C5906A6D403F00303022B926811
:1085C80009D0032B0BD0012B15BFE378B4F8033087
:1085D8001370138008E0D4F80330136004E054F8F3
:1085E800031F636882E80A0047487AE0002D8AD1B1
:1085F8002B46FA18927802B9013501331E2BF8D1AF
:10860800012D7EDD42480BF0AAFA07EB000808F1BD
:108618000408814640460BF0A2FA00EB09030093D8
:10862800FB18DFF8F8905E793A4B1B680193374BDB
:10863800D3F800A04FF0000B5546019B9B4518DA74
:1086480029780A0604D5CB070DD5D5F804900CE097
:1086580068684146FCF708FD38B948462C49FCF7DC
:1086680003FD10B907E0DFF8B4900BF1010B0C35EE
:10867800E3E7022520E00C2303FB0BF30AEB0302DC
:108688001AF803309E423AD106F0400303F0FF0582
:10869800002B32D1009B9168043306F003063B445B
:1086A800022E03F102001FD0032E21D0012E15BF88
:1086B8009B785B880B700B8015480BF050FA0646C8
:1086C80040460BF04CFA37443844457110480BF0DB
:1086D80046FA054640460BF042FA2844043020701A
:1086E8000D48FFF7C3F90EE7D3F802300B60E3E754
:1086F800D0E90023C1E90023DEE70D25DCE71625D4
:10870800DAE703B0BDE8F08F0C7000204462002067
:108718000F7000204C6200200C700020DC41010822
:1087280007B50420FFF750F9604C04202146FFF7F5
:1087380065F9627802F00302012A23464CD0022A26
:1087480000F08280002AEFD1A378012B02D0022BFF
:108758000BD0E9E7A370564B40221B7862700222C7
:1087680013442270E37020469CE0E0782370402296
:108778006270A37020B920714E4B41F6FF7205E07C
:10878800012810D1102323714A4B18221A604A4A33
:1087980018681368C4F809305368C4F80D30C4F871
:1087A80005000F237CE0454D0238C0B2294607F08A
:1087B800AFFC002875D03F4A702101231160106872
:1087C80023712A682378C4F809206A68C4F8050068
:1087D800C4F80D200D3363E0D4F80300A2780190AB
:1087E80041216170E579019962B96A18B2F5005FB3
:1087F80020D204F1080089B22A4605F0CBFFC8B19F
:10880800002318E0012A0AD16A18182A12D82C4B1A
:1088180004F1080019442A460BF086F9EFE76818B6
:10882800702807D8901E89B22A460833C0B207F0CC
:108838009BFCE4E705231D4AE37113B9063515705F
:108848002FE0062313702CE0D4F80300227801905F
:108858004221053A6170A5780199D2B2501845B9FC
:10886800B0F5005F19D2E01D89B205F0ABFFA0B1E9
:1088780008E0012D08D1182804D811480844E11D42
:108888000BF052F9002309E0702806D8A81E89B217
:108898000733C0B207F0CCFCE9E70523E3710623F0
:1088A80023700248FFF7E2F83EE700BF5862002055
:1088B8007D62002078620020334301085062002066
:1088C8002C7C002030B50C4D2C7885B08CB90B4829
:1088D80007F0FCFB003018BF0120012328708DE849
:1088E8001800029403940648064996222346FCF78A
:1088F8005BFC05B030BD00BF7C6200207D620020BB
:10890800298700082F430108014B1878704700BFDA
:108918007C62002070B5104C10492368B3FA83F3C9
:108928000E225B09851C02FB03120E3055F8046BFE
:1089380042F8046B8542F9D1288810800E22236002
:1089480002FB03139B890BB9054A1370FCF76EFDF4
:10895800044B186070BD00BF806200208462002054
:10896800A3620020A862002010B50A4C23787BB9C6
:10897800FEF7EAFF03200849FFF770F8FCF756FDF9
:10898800064B074A186001231370064A23701370B8
:1089980010BD00BFA46200201D890008A862002045
:1089A800A0620020A362002008B5FFF707F8014B7A
:1089B800187808BDA462002070B5114B114C1E68D0
:1089C800FCF734FD104B1B68C01AB0F5FA7F14D9B8
:1089D8000E4D0E2303FB06F2A9180023B0F5FA6F1B
:1089E800AB504B608B6008D9094A0B731370094A66
:1089F8004B7301232370137070BD0023237070BD67
:108A080080620020A0620020A8620020846200200A
:108A18007E620020A362002008B5FCF707FD024B28
:108A28001B68C01A08BD00BFA862002030B5064BFD
:108A38001C68064B0E2505FB04331C680460586847
:108A480008609B68136030BD80620020846200204B
:108A580030B5144B1C7804701348057804460DB9DA
:108A6800187800E0002000F001000870197889B13A
:108A78000E499FED0F7A08680E490E2505FB001177
:108A8800898907EE901AF8EE677A77EEC77AC7EE0B
:108A9800877A01E0DFED087AC2ED007A1B7823704F
:108AA80030BD00BF7E620020A162002080620020ED
:108AB80000FEFF468462002000000000074B18708B
:108AC80050B1074B1A68074B0E2101FB02334FF0D8
:108AD800FF321A737F225A73704700BF7E620020EC
:108AE8008062002084620020044B1B780370044BD2
:108AF8001B780B70034B1B7813707047990100208B
:108B08009A010020A26200200B4B1A680B4B0E2121
:108B180001FB023399890A4B1B780BB1002307E04C
:108B2800B1F57A7FFAD94EF66023994298BF0B4681
:108B38000380FFF741BF00BF8062002084620020ED
:108B4800A3620020014B1878704700BF98010020ED
:108B5800014B1878704700BFAC62002010B5394C43
:108B68002378002B6DD19FED380A3848DFED380A9D
:108B78009FED382AB0EE401AF0EE401AFFF740FB9E
:108B88009FED310A3448DFED320A9FED322AB0EE0C
:108B9800401AF0EE401AFFF733FB9FED2B0ADFED8A
:108BA8002C0A9FED2E1A9FED2B2A2D48F0EE401A25
:108BB800FFF726FB25489FED2B0AFFF77DFB26488C
:108BC8009FED280AFFF778FB25489FED270AFFF756
:108BD80073FB9FED1D0A25489FED1E2AF0EE401AF3
:108BE800F0EE0C0AB0EE001AFFF70AFB9FED160A2A
:108BF8001F489FED182AF0EE401AF0EE0C0AB0EE6E
:108C0800001AFFF7FDFAF2EE040AB7EE001ADFEDDC
:108C1800191A9FED102A18489FED0B0AFFF7F0FA72
:108C28001248B3EE040AFFF747FB1148B3EE040AF3
:108C3800FFF742FB10489FED110AFFF73DFB0123A8
:108C4800237010BDAD6200200000000014710020E8
:108C580000008C426F12033BA47000209A99854152
:108C6800687000203333054233B326432C7000204C
:108C7800DC7000203333B33E4C7100200000B44355
:108C8800014B1878704700BFAD62002000B52DED8C
:108C9800068B4048B0EE408A83B0B0EE610AF0EE31
:108CA800609AF0EE418AB0EE42AAB0EE629AFFF7FF
:108CB8000FFBB0EE480A37489FED378A0121FFF7CE
:108CC800B7FAB4EEC80AF1EE10FA0DDCDFED337A2C
:108CD800B4EEE70AF1EE10FA09D4BDEEC00A8DED44
:108CE800010ABDF8043004E047F6FF7301E048F2DA
:108CF80001032B4A2B481380B0EE4A0AFFF7E8FA23
:108D08002848B0EE690A0121FFF792FAB4EEC80AC2
:108D1800F1EE10FA0DDCDFED217AB4EEE70AF1EEA0
:108D280010FA09D4BDEEC00A8DED010ABDF8043071
:108D380004E047F6FF7301E048F201031A4A1B48B2
:108D48001380B0EE490AFFF7C3FA1848B0EE680A74
:108D58000121FFF76DFAB4EEC80AF1EE10FA0DDC46
:108D6800DFED0E7AB4EEE70AF1EE10FA09D4BDEEA3
:108D7800C00A8DED010ABDF8043004E047F6FF7320
:108D880001E048F201030A4A138003B0BDEC068BE8
:108D98005DF804FB1471002000FEFF4600FEFFC6CC
:108DA800A0700020A4700020667000206870002069
:108DB8006470002070B506462DED068B2648B0EE8F
:108DC80040AAB0EE610AB0EE609AF0EE418AF0EE89
:108DD800429AB0EE628A14460D46FFF779FA0121ED
:108DE8001D48B0EE4A0AFFF723FA1C4886ED000A30
:108DF800B0EE690AFFF76CFA1848B0EE490A01218B
:108E0800FFF716FADFED167A85ED000A38EE680AE4
:108E1800B4EEE70AF1EE10FA04DDDFED127A30EE77
:108E2800670A0AE0DFED107AB4EEE70AF1EE10FA0D
:108E380044BFDFED0C7A30EE270A0C48FFF745FAFD
:108E4800B0EE680A09480021FFF7F2F9BDEC068B7D
:108E580084ED000A70BD00BF2C700020DC7000207B
:108E6800000034430000B443000034C34C710020B8
:108E780008B50A48FFF723FA0948FFF720FA094816
:108E8800FFF71DFA0848FFF71AFA0848FFF717FA1C
:108E98000748BDE80840FFF712BA00BF2C70002051
:108EA800DC7000204C71002014710020A470002098
:108EB80068700020044B1B880380044B1B880B80C0
:108EC800034B1B8813807047A07000206670002039
:108ED80064700020024B1A780AB901221A70704790
:108EE800B4620020014B1878704700BFB4620020BC
:108EF800DFED817A9FED817A8148824A824920EEAE
:108F0800270A60EEA70A21EE271AF5EE401AF1EEBD
:108F180010FAF0B580EE070A7C4C80EE875A81EE95
:108F2800071AF6EE004AF7EE087A09D1B5EE402A9C
:108F3800F1EE10FA04D1F5EE402AF1EE10FA7CD0E9
:108F480062EE026A94ED004AD1ED005A704F714EFC
:108F5800E1EEA16A0025E2EEA26A16EE903A5B10F5
:108F6800C3F1BE4303F55D1303F5CE531F3307EE7C
:108F7800103A66EEA46A06EE103A67EE666AB0EE3C
:108F8800677AA6EE867A644BD0ED006A26EE077AF9
:108F980025EEC46A61EE871A22EE072A62EE872A56
:108FA80092ED007A65EE875AA6EE876AE4EE265AB5
:108FB800FEEE006AE4EE046A25EEE24AE7EE076A8E
:108FC80093ED007A554BA2EE264AB5EEC07A66EECE
:108FD800E16A26EE422AF1EE10FAE2EE866AA1EE86
:108FE800A52A1EDD27EE046AD7ED003AD6ED005A11
:108FF800E6EE033A27EE266A27EE027AE6EE035AF1
:1090080093ED006AC7ED003AA7EE036AC6ED005A71
:1090180083ED006A30EE230A35EE255A31EE061A42
:1090280002E03D6035601D603D4B93ED007AA7EE90
:10903800040AA7EE265AA7EE021A23EE243A91ED67
:10904800004AD4ED003A92ED007A21EE031A20EEA0
:10905800030A24EE016A65EE030AA3EE806A90ED26
:10906800005A60EEC45AF1EE476AE5EE405AA6EEA1
:10907800A06AE6EE815A35EE066A61EE456A25EE8B
:10908800205AE3EEA06AA3EE815A73EEA55AA4EE25
:10909800405AE7EE006A37EE055A26EE067A74EE75
:1090A800266AA5EEA57AA6EEA67AA5EE057A17EEAB
:1090B800103A5B10C3F1BE4303F55D1303F5CE53BD
:1090C8001F3327EE247A04EE903A24EEC77AE7EEAF
:1090D800247A64EEA77A65EEA75A26EE276A66EE2A
:1090E800A76A25EE275AC4ED005A80ED006AC1ED43
:1090F800006A82ED005AF0BDDB0F4940000034439E
:10910800B8620020C0620020BC6200209C010020E0
:10911800C4620020C8620020A0010020B0620020C4
:10912800A401002070B52DED068B364BD3ED007AE7
:10913800354BD3ED006A354B93ED006A344B93ED14
:10914800000A20EE267A20EE468AA6EE277A044602
:109158000D46A7EEA68A164677EE079A27EEA75A77
:1091680026EE067A38EE088A60EE005A37EE459AFF
:10917800F7EE004A66EEA60A39EE659AB4EEE48A7E
:10918800F1EE10FA39EE209A09DCFFEE004AB4EE4F
:10919800648AF1EE10FA48BFB0EE648A01E0B0EEDE
:1091A800648A27EE800A37EE057AA6EE260A37EE9D
:1091B800657A30EE000A77EE600A08F09DFEDFED72
:1091C800158A9FED15AA20EE280A80EE0A0A86ED78
:1091D800000AB0EE480A08F031FE20EE280AF0EE48
:1091E800490A80EE0A0A85ED000AB0EE690A08F01D
:1091F80083FE20EE280A80EE0A0ABDEC068B84ED79
:10920800000A70BDB8620020C06200209C010020E6
:10921800BC62002000003443DB0F4940164B93ED3D
:10922800007A164B93ED006A154B93ED005A154BD7
:10923800D3ED005A65EE867A65EEC56AE5EE077AE3
:10924800E7EE066A27EE477A77EEA77AA5EE057A63
:1092580060EEA70AA5EEE57A76EEA66AF0EE607AE9
:10926800E0EE267AA6EE067AB7EE000AE1EE077A75
:1092780037EEC00A704700BFB8620020C062002005
:109288009C010020BC620020F0EEC07AF4EEE07A87
:10929800F1EE10FA0BD4B5EEC00AF1EE10FA02DDC9
:1092A80030EE600A704704D530EE200A70479FED13
:1092B800010A7047000000002DE9F0414E10851B9F
:1092C8005210AC181C444FF6FF7724EAE474BC42F1
:1092D8001B49DFF87880A5EB0205A8BF3C46064489
:1092E800ED1A0C6025EAE575B11ABD42D4BFC8F87D
:1092F8000050C8F800703244124D134E194421EA48
:10930800E171D31A23EAE373B942D4BF29602F600D
:109318000020A1B2BB42D4BF33603760FEF7C0F96A
:10932800B8F800100120FEF7BBF929880220FEF7E3
:10933800B7F931880320BDE8F041FEF7B1B900BFA5
:109348009871002084710020907100208C71002099
:109358002DE9F04F2DED068B002085B00321FCF799
:10936800B3F9FEF767FEFCF761F8DFED968A039024
:1093780000263446B0EE689A03A80221FCF742F9A9
:1093880091489249924A06F0D5FA06F0CDFA00289B
:10939800F2D0DFF888928F488F494A46FFF746FB9C
:1093A8000DF109000DF10A010DF10B02FFF79CFB0D
:1093B8009DF80B309BBB18EE900AFBF745F88246E8
:1093C800D9F800008B46FBF73FF80022834BFBF7E8
:1093D800B9F902460B4650465946FAF7D5FEFBF74F
:1093E80021FB08EE900ADFED7E7AF4EEE78AF1EED3
:1093F80010FA04DDDFED7B7A78EEE78AF3E7DFED3C
:109408007A7AF4EEE78AF1EE10FA04D5DFED757A90
:1094180078EEA78AF3E7F1EE687AC9ED007A012CB5
:10942800694D40F0CD80694C9FED708ADFF8F0817E
:10943800D4ED001A94ED012AD4ED022A95ED000A24
:10944800D5ED010A95ED021ADFF8D8B1DFF884A14D
:10945800614FB0EE483AFFF74BFD65486549424613
:10946800FFF760FE94ED021AD4ED010A94ED000AAC
:10947800FFF7D4FED4ED017AD4ED006A94ED027AB8
:109488005D4B8BED000A67EEA77AE6EEA67AE7EE6B
:10949800077AC3ED007A594BD3ED000AFFF7F4FEC3
:1094A800574BD3ED007AE0EE087AC3ED007AFFF768
:1094B80049FBA0B1012841D19FED527AD7ED007A3E
:1094C800DAED006A67EE877AB0EE676A96EE876A29
:1094D800E6EE877A8AED006AC7ED007A2EE0FFF79C
:1094E80037FBDAED009A484B10B1D8F80010196034
:1094F80093ED008AD8ED007A37EEC88ADFED437A1B
:1095080068EE277A9FED368A87EE888AB0EE480A99
:1095180008F0E4FBB0EE40AAB0EE480A08F022FCDE
:1095280097ED007A60EE477AE9EE8A7A69EE809ADA
:10953800CAED007AE7EE0A9AC7ED009ADFF8B0C0E4
:109548002C4BD9ED002A9CED000A98ED001ADAEDB3
:10955800001A97ED002A2E492E4AD3ED000A2E480C
:10956800CDF804C0F1EE622A0093FFF723FC224BEA
:109578009BED000AD3ED000A00F05AFFDDF804C0A5
:10958800009B9CED000AD3ED000A00F0EDFF94ED7E
:10959800000AD4ED010A94ED021A00F091FF00F0E0
:1095A80075FF28B100F0F0FF10B90120FFF786FA27
:1095B80000F0EAFFC0B30020FFF780FA002434E08F
:1095C800012432E00000000070630020EC620020FB
:1095D800D8620020AC630020E862002000407F4091
:1095E800000034430000B443000034C36F12833BCF
:1095F800CC6200208863002080630020EC010020FA
:109608006C630020F304353F60630020DB0F4940A2
:1096180004630020946300209C630020A46300205E
:10962800E46200207C630020044606F0BFF9DFF8FE
:109638007893DFF87883002800F0C4810136042E7F
:1096480040F2C081B14EB249B24ADFF864B348462D
:10965800FFF7FEF93246B049B04804F0C5FEB04BFA
:10966800D6ED007A93ED000AAE4B77EEC07A93ED13
:10967800007AC6ED007AB7EE008AAB4EAB4BD6ED5A
:10968800006A38EE470A27EE800AA6EE870A93EDAD
:10969800007AA74B86ED000A78EE476A67EEA67A4D
:1096A800D3ED006AE6EE877AC3ED007AA14B30EE7F
:1096B800670AD3ED000AFFF7E7FD9F4A9F4BD2EDFB
:1096C800007A93ED007A8BED000AF1EE676AF4EE0A
:1096D800C76AF1EE10FAD4BFB0EE476AB0EE666A18
:1096E800F4EEC67AF1EE10FA08D4F4EEC76AF1EE99
:1096F80010FAD4BFF0EE477AF0EE667A904A92ED0F
:10970800007A78EE476A20EE260AA7EE870A83EDEC
:10971800000A8C4B83ED000A06F06CFA10B98A4BEC
:1097280083ED039A7A4B894F1B7803B3884BDFF894
:1097380018A2D3ED000A874B96ED000A93ED001AA4
:10974800854BDAED039AD3ED001A9FED842A87ED55
:10975800000A5046FEF754FD504696ED000ACAED41
:10976800039A0021FEF764FD7D4B83ED000ADFF8C4
:1097780008A29AF8003093B900F0DCFE78B100F046
:1097880003FF60B9624B1B784BB101238AF80030A4
:109798006E4B1A68734B1A60734B83ED009A9AF8F4
:1097A800003033B3714B6F4A93ED007A6E4B7049BA
:1097B800D3ED006A78EE477AE6EE877AD1ED006A53
:1097C80092ED007A6149C3ED007AA7EEA67A81EDA1
:1097D800007A684991ED007AF4EEC77AF1EE10FA52
:1097E800A1BF654982ED009A00200870A8BF83EDEB
:1097F800009A99F80030DFF868A1604A002B00F061
:10980800D980444B5048D3ED007A5D4B009293EDDC
:10981800000A87EE800AD7ED007A30EE270A87ED36
:10982800000AFEF755FDD7ED007A564B96ED000A73
:10983800D3ED000A30EE670AFFF726FD524B009A77
:10984800D3ED007AB1EE677AB4EEC07AF1EE10FA91
:10985800D4BFF0EE406AF0EE476AF4EEE67AF1EE35
:1098680010FA08D4B4EEC07AF1EE10FAD4BFF0EED4
:10987800407AF0EE477AB1EE670A3348C2ED007AD3
:10988800FEF723FD414BDBED007A93ED00AA404B38
:109898002D48D3ED009A2B4B96ED000A93ED007AF4
:1098A8003C4BDAED00AA67EEA99AD3ED007A0021C5
:1098B800E7EE279AFEF7BCFC38EE4A8A39EE800AB2
:1098C8003548364B28EE000A90ED008A1A88344B4A
:1098D800AAEE2A0A1988334B8AED000A20EE080AF4
:1098E8001B88BDEEC00A10EE100A034483F3100370
:1098F80098B2814238BF0B469A4203DC884202463E
:1099080028BF0A46A8F8002000265BE05C63002018
:10991800A863002090630020F86200200C630020F8
:1099280020630020B401002084630020F00100209F
:10993800A0630020D8010020E00100206C63002013
:10994800B80100200063002024630020E401002007
:10995800D4010020CC010020086300200AD7233C52
:1099680018630020FC62002064630020C00100200E
:10997800E8010020BC01002068630020106300207B
:10998800B00100208C630020D0010020A801002035
:10999800D0620020DC010020C80100201C630020E8
:1099A800C4010020AC010020986300208A710020C7
:1099B800D46200202E4982ED009A81ED009A8AED4A
:1099C800009A1E46092004F0BFFF9DF80930294A75
:1099D80013B9294B1B6813609DF80A10274B11B95E
:1099E80027490968196093ED002AD5ED010A254B2E
:1099F800D2ED001AD3ED002A95ED000A95ED021A72
:109A0800F1EE600AFFF742F91F482049204AFFF7A4
:109A180051FA99F800301BB91E48FFF775F805E0B0
:109A280005F0C4FF0028F7D0FEF7C6FF00F0ACFD34
:109A380010B10023A8F80030B8F8000060B1144B4A
:109A4800114A1B88B2F90010104A5B42B2F9002093
:109A58001BB2FFF731FC8FE4034601460246FFF7CD
:109A68002BFCFFF705FA0C4BD3ED008A84E400BF0A
:109A7800E40100209C630020AC6300200463002004
:109A8800E862002094630020947100209C710020FB
:109A9800887100208A710020E462002030B5134DDF
:109AA8002C7885B0FCB91248FDF774FD05F02EFC42
:109AB800FFF710FAFFF752F800F06CFD0D4A0E4858
:109AC8000E49002313600E4A13600E4A13600423E4
